{
  "abi": [
    {
      "inputs": [],
      "stateMutability": "payable",
      "type": "constructor"
    },
    {
      "inputs": [],
      "name": "MINIMUM_INVESTMENT",
      "outputs": [
        {
          "internalType": "uint256",
          "name": "",
          "type": "uint256"
        }
      ],
      "stateMutability": "view",
      "type": "function"
    },
    {
      "inputs": [
        {
          "internalType": "address",
          "name": "",
          "type": "address"
        }
      ],
      "name": "balances",
      "outputs": [
        {
          "internalType": "uint256",
          "name": "",
          "type": "uint256"
        }
      ],
      "stateMutability": "view",
      "type": "function"
    },
    {
      "inputs": [],
      "name": "depth",
      "outputs": [
        {
          "internalType": "uint256",
          "name": "",
          "type": "uint256"
        }
      ],
      "stateMutability": "view",
      "type": "function"
    },
    {
      "inputs": [
        {
          "internalType": "uint256",
          "name": "",
          "type": "uint256"
        }
      ],
      "name": "investors",
      "outputs": [
        {
          "internalType": "address",
          "name": "",
          "type": "address"
        }
      ],
      "stateMutability": "view",
      "type": "function"
    },
    {
      "inputs": [],
      "name": "numInvestors",
      "outputs": [
        {
          "internalType": "uint256",
          "name": "",
          "type": "uint256"
        }
      ],
      "stateMutability": "view",
      "type": "function"
    },
    {
      "inputs": [],
      "name": "withdraw",
      "outputs": [],
      "stateMutability": "nonpayable",
      "type": "function"
    },
    {
      "stateMutability": "payable",
      "type": "receive"
    }
  ],
  "bytecode": {
    "object": "0x6080604052600080556000600155600060035566038d7ea4c6800034101561002657600080fd5b600380819055503360026000815481106100425761004261008a565b600091825260208083209190910180546001600160a01b0319166001600160a01b039490941693909317909255600180825580553081526004909152604090203490556100a0565b634e487b7160e01b600052603260045260246000fd5b61065a806100af6000396000f3fe6080604052600436106100595760003560e01c8063132ae5e9146102ef57806327e235e3146103185780633ccfd60b146103455780633feb5f2b1461035a578063631c56ef146103925780638a4660fe146103a857600080fd5b366102ea5766038d7ea4c6800034101561007257600080fd5b3060009081526004602052604081208054349290610091908490610448565b9250508190555060016000808282546100aa9190610448565b9250508190555033600260016000546100c39190610460565b815481106100d3576100d3610477565b9060005260206000200160006101000a8154816001600160a01b0302191690836001600160a01b0316021790555060035460005414156102e8576000600154600261011e9190610573565b60005461012b9190610460565b905060006001805461013d9190610460565b610148906002610573565b6101529083610460565b9050805b828110156101c95766038d7ea4c68000600460006002848154811061017d5761017d610477565b60009182526020808320909101546001600160a01b03168352820192909252604001812080549091906101b1908490610448565b909155508190506101c181610586565b915050610156565b506000600180546101da9190610460565b6101e5906002610573565b6101f69066038d7ea4c680006105a1565b60008054308252600460205260408220549293509091610217908490610460565b61022191906105c0565b905060005b6000548110156102945781600460006002848154811061024857610248610477565b60009182526020808320909101546001600160a01b031683528201929092526040018120805490919061027c908490610448565b9091555081905061028c81610586565b915050610226565b5030600090815260046020526040812081905560018054909182916102ba908390610448565b90915550506001546102cd906002610573565b600360008282546102de9190610448565b9091555050505050505b005b600080fd5b3480156102fb57600080fd5b5061030560005481565b6040519081526020015b60405180910390f35b34801561032457600080fd5b506103056103333660046105e2565b60046020526000908152604090205481565b34801561035157600080fd5b506102e86103c3565b34801561036657600080fd5b5061037a61037536600461060b565b610408565b6040516001600160a01b03909116815260200161030f565b34801561039e57600080fd5b5061030560015481565b3480156103b457600080fd5b5061030566038d7ea4c6800081565b33600081815260046020526040808220805490839055905190929183156108fc02918491818181858888f19350505050158015610404573d6000803e3d6000fd5b5050565b6002818154811061041857600080fd5b6000918252602090912001546001600160a01b0316905081565b634e487b7160e01b600052601160045260246000fd5b6000821982111561045b5761045b610432565b500190565b60008282101561047257610472610432565b500390565b634e487b7160e01b600052603260045260246000fd5b600181815b808511156104c85781600019048211156104ae576104ae610432565b808516156104bb57918102915b93841c9390800290610492565b509250929050565b6000826104df5750600161056d565b816104ec5750600061056d565b8160018114610502576002811461050c57610528565b600191505061056d565b60ff84111561051d5761051d610432565b50506001821b61056d565b5060208310610133831016604e8410600b841016171561054b575081810a61056d565b610555838361048d565b806000190482111561056957610569610432565b0290505b92915050565b600061057f83836104d0565b9392505050565b600060001982141561059a5761059a610432565b5060010190565b60008160001904831182151516156105bb576105bb610432565b500290565b6000826105dd57634e487b7160e01b600052601260045260246000fd5b500490565b6000602082840312156105f457600080fd5b81356001600160a01b038116811461057f57600080fd5b60006020828403121561061d57600080fd5b503591905056fea2646970667358221220ab55c2ae4f854e4508ca41cf9d277fa7da16b3a8bf7991c7b3f46e796138bc3964736f6c634300080a0033",
    "linkReferences": {}
  }
}